{
  "_format": "hh-sol-artifact-1",
  "contractName": "Voting",
  "sourceName": "contracts/voting.sol",
  "abi": [
    {
      "inputs": [
        {
          "internalType": "string",
          "name": "_name",
          "type": "string"
        }
      ],
      "name": "addCandidate",
      "outputs": [],
      "stateMutability": "nonpayable",
      "type": "function"
    },
    {
      "inputs": [
        {
          "internalType": "uint256",
          "name": "",
          "type": "uint256"
        }
      ],
      "name": "candidateList",
      "outputs": [
        {
          "internalType": "string",
          "name": "",
          "type": "string"
        }
      ],
      "stateMutability": "view",
      "type": "function"
    },
    {
      "inputs": [
        {
          "internalType": "string",
          "name": "",
          "type": "string"
        }
      ],
      "name": "candidates",
      "outputs": [
        {
          "internalType": "string",
          "name": "name",
          "type": "string"
        },
        {
          "internalType": "address",
          "name": "publicKey",
          "type": "address"
        }
      ],
      "stateMutability": "view",
      "type": "function"
    },
    {
      "inputs": [
        {
          "internalType": "string",
          "name": "_candidateName",
          "type": "string"
        }
      ],
      "name": "castVote",
      "outputs": [],
      "stateMutability": "nonpayable",
      "type": "function"
    },
    {
      "inputs": [],
      "name": "getCandidateList",
      "outputs": [
        {
          "internalType": "string[]",
          "name": "",
          "type": "string[]"
        }
      ],
      "stateMutability": "view",
      "type": "function"
    },
    {
      "inputs": [
        {
          "internalType": "bytes32",
          "name": "messageHash",
          "type": "bytes32"
        }
      ],
      "name": "getEthSignedMessageHash",
      "outputs": [
        {
          "internalType": "bytes32",
          "name": "",
          "type": "bytes32"
        }
      ],
      "stateMutability": "pure",
      "type": "function"
    },
    {
      "inputs": [
        {
          "internalType": "address",
          "name": "voter",
          "type": "address"
        },
        {
          "internalType": "string",
          "name": "_constituency",
          "type": "string"
        }
      ],
      "name": "getMessageHash",
      "outputs": [
        {
          "internalType": "bytes32",
          "name": "",
          "type": "bytes32"
        }
      ],
      "stateMutability": "pure",
      "type": "function"
    },
    {
      "inputs": [
        {
          "internalType": "bytes32",
          "name": "_ethSignedMessageHash",
          "type": "bytes32"
        },
        {
          "internalType": "bytes",
          "name": "_signature",
          "type": "bytes"
        }
      ],
      "name": "recoverSigner",
      "outputs": [
        {
          "internalType": "address",
          "name": "",
          "type": "address"
        }
      ],
      "stateMutability": "pure",
      "type": "function"
    },
    {
      "inputs": [
        {
          "internalType": "string",
          "name": "_constituency",
          "type": "string"
        },
        {
          "internalType": "bytes",
          "name": "signature",
          "type": "bytes"
        }
      ],
      "name": "registerVoter",
      "outputs": [],
      "stateMutability": "nonpayable",
      "type": "function"
    },
    {
      "inputs": [
        {
          "internalType": "bytes",
          "name": "sig",
          "type": "bytes"
        }
      ],
      "name": "splitSignature",
      "outputs": [
        {
          "internalType": "bytes32",
          "name": "r",
          "type": "bytes32"
        },
        {
          "internalType": "bytes32",
          "name": "s",
          "type": "bytes32"
        },
        {
          "internalType": "uint8",
          "name": "v",
          "type": "uint8"
        }
      ],
      "stateMutability": "pure",
      "type": "function"
    },
    {
      "inputs": [
        {
          "internalType": "string",
          "name": "_candidateName",
          "type": "string"
        }
      ],
      "name": "totalVotesFor",
      "outputs": [
        {
          "internalType": "uint256",
          "name": "",
          "type": "uint256"
        }
      ],
      "stateMutability": "view",
      "type": "function"
    },
    {
      "inputs": [
        {
          "internalType": "address",
          "name": "",
          "type": "address"
        }
      ],
      "name": "voters",
      "outputs": [
        {
          "internalType": "bool",
          "name": "isRegistered",
          "type": "bool"
        },
        {
          "internalType": "bool",
          "name": "hasVoted",
          "type": "bool"
        },
        {
          "internalType": "string",
          "name": "constituency",
          "type": "string"
        }
      ],
      "stateMutability": "view",
      "type": "function"
    },
    {
      "inputs": [
        {
          "internalType": "string",
          "name": "",
          "type": "string"
        }
      ],
      "name": "votesReceived",
      "outputs": [
        {
          "internalType": "uint256",
          "name": "",
          "type": "uint256"
        }
      ],
      "stateMutability": "view",
      "type": "function"
    }
  ],
  "bytecode": "0x608060405234801561001057600080fd5b50611b46806100206000396000f3fe608060405234801561001057600080fd5b50600436106100cf5760003560e01c80639cc2d9931161008c578063b13c744b11610066578063b13c744b1461024c578063c5539cc21461027c578063fa540801146102ad578063fdbc4006146102dd576100cf565b80639cc2d993146101cc578063a3ec138d146101e8578063a7bb58031461021a576100cf565b8063462e91ec146100d45780634a3bf377146100f05780638d4b44d91461012057806390fb732d1461015057806391be0c031461016c57806397aba7f91461019c575b600080fd5b6100ee60048036038101906100e99190611095565b6102fb565b005b61010a60048036038101906101059190611095565b61049a565b60405161011791906117b9565b60405180910390f35b61013a60048036038101906101359190611095565b6104c2565b60405161014791906117b9565b60405180910390f35b61016a600480360381019061016591906110d6565b6104f0565b005b61018660048036038101906101819190610f83565b6106dc565b60405161019391906115f0565b60405180910390f35b6101b660048036038101906101b19190611000565b61070f565b6040516101c39190611575565b60405180910390f35b6101e660048036038101906101e19190611095565b61077e565b005b61020260048036038101906101fd9190610f5a565b6109dd565b604051610211939291906115b2565b60405180910390f35b610234600480360381019061022f9190611054565b610aa9565b6040516102439392919061160b565b60405180910390f35b61026660048036038101906102619190611142565b610b11565b6040516102739190611687565b60405180910390f35b61029660048036038101906102919190611095565b610bbd565b6040516102a49291906116a9565b60405180910390f35b6102c760048036038101906102c29190610fd7565b610c9f565b6040516102d491906115f0565b60405180910390f35b6102e5610ccf565b6040516102f29190611590565b60405180910390f35b600073ffffffffffffffffffffffffffffffffffffffff166001826040516103239190611538565b908152602001604051809103902060010160009054906101000a900473ffffffffffffffffffffffffffffffffffffffff1673ffffffffffffffffffffffffffffffffffffffff16146103ab576040517f08c379a00000000000000000000000000000000000000000000000000000000081526004016103a290611719565b60405180910390fd5b60405180604001604052808281526020013373ffffffffffffffffffffffffffffffffffffffff168152506001826040516103e69190611538565b90815260200160405180910390206000820151816000019080519060200190610410929190610da8565b5060208201518160010160006101000a81548173ffffffffffffffffffffffffffffffffffffffff021916908373ffffffffffffffffffffffffffffffffffffffff160217905550905050600381908060018154018082558091505060019003906000526020600020016000909190919091509080519060200190610496929190610da8565b5050565b60006002826040516104ac9190611538565b9081526020016040518091039020549050919050565b6002818051602081018201805184825260208301602085012081835280955050505050506000915090505481565b6000803373ffffffffffffffffffffffffffffffffffffffff1673ffffffffffffffffffffffffffffffffffffffff16815260200190815260200160002060000160009054906101000a900460ff161561057f576040517f08c379a0000000000000000000000000000000000000000000000000000000008152600401610576906116d9565b60405180910390fd5b600061058b33846106dc565b9050600061059882610c9f565b905060006105a6828561070f565b90503373ffffffffffffffffffffffffffffffffffffffff168173ffffffffffffffffffffffffffffffffffffffff1614610616576040517f08c379a000000000000000000000000000000000000000000000000000000000815260040161060d906116f9565b60405180910390fd5b6040518060600160405280600115158152602001600015158152602001868152506000803373ffffffffffffffffffffffffffffffffffffffff1673ffffffffffffffffffffffffffffffffffffffff16815260200190815260200160002060008201518160000160006101000a81548160ff02191690831515021790555060208201518160000160016101000a81548160ff02191690831515021790555060408201518160010190805190602001906106d1929190610da8565b509050505050505050565b600082826040516020016106f1929190611510565b60405160208183030381529060405280519060200120905092915050565b60008060008061071e85610aa9565b925092509250600186828585604051600081526020016040526040516107479493929190611642565b6020604051602081039080840390855afa158015610769573d6000803e3d6000fd5b50505060206040510351935050505092915050565b6000803373ffffffffffffffffffffffffffffffffffffffff1673ffffffffffffffffffffffffffffffffffffffff16815260200190815260200160002060000160009054906101000a900460ff1661080c576040517f08c379a000000000000000000000000000000000000000000000000000000000815260040161080390611759565b60405180910390fd5b6000803373ffffffffffffffffffffffffffffffffffffffff1673ffffffffffffffffffffffffffffffffffffffff16815260200190815260200160002060000160019054906101000a900460ff161561089b576040517f08c379a000000000000000000000000000000000000000000000000000000000815260040161089290611799565b60405180910390fd5b600073ffffffffffffffffffffffffffffffffffffffff166001826040516108c39190611538565b908152602001604051809103902060010160009054906101000a900473ffffffffffffffffffffffffffffffffffffffff1673ffffffffffffffffffffffffffffffffffffffff16141561094c576040517f08c379a000000000000000000000000000000000000000000000000000000000815260040161094390611739565b60405180910390fd5b60016000803373ffffffffffffffffffffffffffffffffffffffff1673ffffffffffffffffffffffffffffffffffffffff16815260200190815260200160002060000160016101000a81548160ff0219169083151502179055506002816040516109b69190611538565b908152602001604051809103902060008154809291906109d5906119a9565b919050555050565b60006020528060005260406000206000915090508060000160009054906101000a900460ff16908060000160019054906101000a900460ff1690806001018054610a2690611977565b80601f0160208091040260200160405190810160405280929190818152602001828054610a5290611977565b8015610a9f5780601f10610a7457610100808354040283529160200191610a9f565b820191906000526020600020905b815481529060010190602001808311610a8257829003601f168201915b5050505050905083565b60008060006041845114610af2576040517f08c379a0000000000000000000000000000000000000000000000000000000008152600401610ae990611779565b60405180910390fd5b6020840151925060408401519150606084015160001a90509193909250565b60038181548110610b2157600080fd5b906000526020600020016000915090508054610b3c90611977565b80601f0160208091040260200160405190810160405280929190818152602001828054610b6890611977565b8015610bb55780601f10610b8a57610100808354040283529160200191610bb5565b820191906000526020600020905b815481529060010190602001808311610b9857829003601f168201915b505050505081565b600181805160208101820180518482526020830160208501208183528095505050505050600091509050806000018054610bf690611977565b80601f0160208091040260200160405190810160405280929190818152602001828054610c2290611977565b8015610c6f5780601f10610c4457610100808354040283529160200191610c6f565b820191906000526020600020905b815481529060010190602001808311610c5257829003601f168201915b5050505050908060010160009054906101000a900473ffffffffffffffffffffffffffffffffffffffff16905082565b600081604051602001610cb2919061154f565b604051602081830303815290604052805190602001209050919050565b60606003805480602002602001604051908101604052809291908181526020016000905b82821015610d9f578382906000526020600020018054610d1290611977565b80601f0160208091040260200160405190810160405280929190818152602001828054610d3e90611977565b8015610d8b5780601f10610d6057610100808354040283529160200191610d8b565b820191906000526020600020905b815481529060010190602001808311610d6e57829003601f168201915b505050505081526020019060010190610cf3565b50505050905090565b828054610db490611977565b90600052602060002090601f016020900481019282610dd65760008555610e1d565b82601f10610def57805160ff1916838001178555610e1d565b82800160010185558215610e1d579182015b82811115610e1c578251825591602001919060010190610e01565b5b509050610e2a9190610e2e565b5090565b5b80821115610e47576000816000905550600101610e2f565b5090565b6000610e5e610e5984611805565b6117d4565b905082815260208101848484011115610e7657600080fd5b610e81848285611935565b509392505050565b6000610e9c610e9784611835565b6117d4565b905082815260208101848484011115610eb457600080fd5b610ebf848285611935565b509392505050565b600081359050610ed681611acb565b92915050565b600081359050610eeb81611ae2565b92915050565b600082601f830112610f0257600080fd5b8135610f12848260208601610e4b565b91505092915050565b600082601f830112610f2c57600080fd5b8135610f3c848260208601610e89565b91505092915050565b600081359050610f5481611af9565b92915050565b600060208284031215610f6c57600080fd5b6000610f7a84828501610ec7565b91505092915050565b60008060408385031215610f9657600080fd5b6000610fa485828601610ec7565b925050602083013567ffffffffffffffff811115610fc157600080fd5b610fcd85828601610f1b565b9150509250929050565b600060208284031215610fe957600080fd5b6000610ff784828501610edc565b91505092915050565b6000806040838503121561101357600080fd5b600061102185828601610edc565b925050602083013567ffffffffffffffff81111561103e57600080fd5b61104a85828601610ef1565b9150509250929050565b60006020828403121561106657600080fd5b600082013567ffffffffffffffff81111561108057600080fd5b61108c84828501610ef1565b91505092915050565b6000602082840312156110a757600080fd5b600082013567ffffffffffffffff8111156110c157600080fd5b6110cd84828501610f1b565b91505092915050565b600080604083850312156110e957600080fd5b600083013567ffffffffffffffff81111561110357600080fd5b61110f85828601610f1b565b925050602083013567ffffffffffffffff81111561112c57600080fd5b61113885828601610ef1565b9150509250929050565b60006020828403121561115457600080fd5b600061116284828501610f45565b91505092915050565b6000611177838361124f565b905092915050565b611188816118d6565b82525050565b61119f61119a826118d6565b6119f2565b82525050565b60006111b082611875565b6111ba8185611898565b9350836020820285016111cc85611865565b8060005b8581101561120857848403895281516111e9858261116b565b94506111f48361188b565b925060208a019950506001810190506111d0565b50829750879550505050505092915050565b611223816118e8565b82525050565b611232816118f4565b82525050565b611249611244826118f4565b611a04565b82525050565b600061125a82611880565b61126481856118a9565b9350611274818560208601611944565b61127d81611aad565b840191505092915050565b600061129382611880565b61129d81856118ba565b93506112ad818560208601611944565b6112b681611aad565b840191505092915050565b60006112cc82611880565b6112d681856118cb565b93506112e6818560208601611944565b80840191505092915050565b60006112ff601c836118cb565b91507f19457468657265756d205369676e6564204d6573736167653a0a3332000000006000830152601c82019050919050565b600061133f6012836118ba565b91507f416c7265616479207265676973746572656400000000000000000000000000006000830152602082019050919050565b600061137f6011836118ba565b91507f496e76616c6964207369676e61747572650000000000000000000000000000006000830152602082019050919050565b60006113bf6018836118ba565b91507f43616e64696461746520616c72656164792065786973747300000000000000006000830152602082019050919050565b60006113ff6018836118ba565b91507f43616e64696461746520646f6573206e6f7420657869737400000000000000006000830152602082019050919050565b600061143f6016836118ba565b91507f596f7520617265206e6f742072656769737465726564000000000000000000006000830152602082019050919050565b600061147f6018836118ba565b91507f496e76616c6964207369676e6174757265206c656e67746800000000000000006000830152602082019050919050565b60006114bf6016836118ba565b91507f596f75206861766520616c726561647920766f746564000000000000000000006000830152602082019050919050565b6114fb8161191e565b82525050565b61150a81611928565b82525050565b600061151c828561118e565b60148201915061152c82846112c1565b91508190509392505050565b600061154482846112c1565b915081905092915050565b600061155a826112f2565b91506115668284611238565b60208201915081905092915050565b600060208201905061158a600083018461117f565b92915050565b600060208201905081810360008301526115aa81846111a5565b905092915050565b60006060820190506115c7600083018661121a565b6115d4602083018561121a565b81810360408301526115e68184611288565b9050949350505050565b60006020820190506116056000830184611229565b92915050565b60006060820190506116206000830186611229565b61162d6020830185611229565b61163a6040830184611501565b949350505050565b60006080820190506116576000830187611229565b6116646020830186611501565b6116716040830185611229565b61167e6060830184611229565b95945050505050565b600060208201905081810360008301526116a18184611288565b905092915050565b600060408201905081810360008301526116c38185611288565b90506116d2602083018461117f565b9392505050565b600060208201905081810360008301526116f281611332565b9050919050565b6000602082019050818103600083015261171281611372565b9050919050565b60006020820190508181036000830152611732816113b2565b9050919050565b60006020820190508181036000830152611752816113f2565b9050919050565b6000602082019050818103600083015261177281611432565b9050919050565b6000602082019050818103600083015261179281611472565b9050919050565b600060208201905081810360008301526117b2816114b2565b9050919050565b60006020820190506117ce60008301846114f2565b92915050565b6000604051905081810181811067ffffffffffffffff821117156117fb576117fa611a7e565b5b8060405250919050565b600067ffffffffffffffff8211156118205761181f611a7e565b5b601f19601f8301169050602081019050919050565b600067ffffffffffffffff8211156118505761184f611a7e565b5b601f19601f8301169050602081019050919050565b6000819050602082019050919050565b600081519050919050565b600081519050919050565b6000602082019050919050565b600082825260208201905092915050565b600082825260208201905092915050565b600082825260208201905092915050565b600081905092915050565b60006118e1826118fe565b9050919050565b60008115159050919050565b6000819050919050565b600073ffffffffffffffffffffffffffffffffffffffff82169050919050565b6000819050919050565b600060ff82169050919050565b82818337600083830152505050565b60005b83811015611962578082015181840152602081019050611947565b83811115611971576000848401525b50505050565b6000600282049050600182168061198f57607f821691505b602082108114156119a3576119a2611a4f565b5b50919050565b60006119b48261191e565b91507fffffffffffffffffffffffffffffffffffffffffffffffffffffffffffffffff8214156119e7576119e6611a20565b5b600182019050919050565b60006119fd82611a0e565b9050919050565b6000819050919050565b6000611a1982611abe565b9050919050565b7f4e487b7100000000000000000000000000000000000000000000000000000000600052601160045260246000fd5b7f4e487b7100000000000000000000000000000000000000000000000000000000600052602260045260246000fd5b7f4e487b7100000000000000000000000000000000000000000000000000000000600052604160045260246000fd5b6000601f19601f8301169050919050565b60008160601b9050919050565b611ad4816118d6565b8114611adf57600080fd5b50565b611aeb816118f4565b8114611af657600080fd5b50565b611b028161191e565b8114611b0d57600080fd5b5056fea26469706673582212200808305f14ed2d9fe2571c5f15dee4f08ee959bfb976840997ea3924c4973e5d64736f6c63430008000033",
  "linkReferences": {},
  "deployedLinkReferences": {}
}