{
  "contractName": "Voting",
  "abi": [
    {
      "inputs": [
        {
          "internalType": "uint256",
          "name": "",
          "type": "uint256"
        }
      ],
      "name": "candidateList",
      "outputs": [
        {
          "internalType": "string",
          "name": "",
          "type": "string"
        }
      ],
      "stateMutability": "view",
      "type": "function",
      "constant": true
    },
    {
      "inputs": [
        {
          "internalType": "address",
          "name": "",
          "type": "address"
        }
      ],
      "name": "voters",
      "outputs": [
        {
          "internalType": "bool",
          "name": "isRegistered",
          "type": "bool"
        },
        {
          "internalType": "bool",
          "name": "hasVoted",
          "type": "bool"
        }
      ],
      "stateMutability": "view",
      "type": "function",
      "constant": true
    },
    {
      "inputs": [
        {
          "internalType": "string",
          "name": "",
          "type": "string"
        }
      ],
      "name": "votesReceived",
      "outputs": [
        {
          "internalType": "uint256",
          "name": "",
          "type": "uint256"
        }
      ],
      "stateMutability": "view",
      "type": "function",
      "constant": true
    },
    {
      "inputs": [],
      "name": "registerVoter",
      "outputs": [],
      "stateMutability": "nonpayable",
      "type": "function"
    },
    {
      "inputs": [
        {
          "internalType": "string",
          "name": "candidateName",
          "type": "string"
        }
      ],
      "name": "castVote",
      "outputs": [],
      "stateMutability": "nonpayable",
      "type": "function"
    },
    {
      "inputs": [
        {
          "internalType": "string",
          "name": "candidateName",
          "type": "string"
        }
      ],
      "name": "addCandidate",
      "outputs": [],
      "stateMutability": "nonpayable",
      "type": "function"
    },
    {
      "inputs": [
        {
          "internalType": "string",
          "name": "candidateName",
          "type": "string"
        }
      ],
      "name": "getVotesForCandidate",
      "outputs": [
        {
          "internalType": "uint256",
          "name": "",
          "type": "uint256"
        }
      ],
      "stateMutability": "view",
      "type": "function",
      "constant": true
    },
    {
      "inputs": [],
      "name": "getCandidateList",
      "outputs": [
        {
          "internalType": "string[]",
          "name": "",
          "type": "string[]"
        }
      ],
      "stateMutability": "view",
      "type": "function",
      "constant": true
    }
  ],
  "bytecode": "0x608060405234801561001057600080fd5b50610e49806100206000396000f3fe608060405234801561001057600080fd5b50600436106100885760003560e01c8063a3ec138d1161005b578063a3ec138d14610125578063b13c744b14610156578063ecb617d914610186578063fdbc40061461019057610088565b8063462e91ec1461008d5780636ff15627146100a95780638d4b44d9146100d95780639cc2d99314610109575b600080fd5b6100a760048036038101906100a291906107fd565b6101ae565b005b6100c360048036038101906100be91906107fd565b6101ed565b6040516100d09190610b55565b60405180910390f35b6100f360048036038101906100ee91906107fd565b610215565b6040516101009190610b55565b60405180910390f35b610123600480360381019061011e91906107fd565b610243565b005b61013f600480360381019061013a91906107d4565b6103f1565b60405161014d929190610aaa565b60405180910390f35b610170600480360381019061016b919061083e565b61042f565b60405161017d9190610ad3565b60405180910390f35b61018e6104db565b005b6101986105c6565b6040516101a59190610a88565b60405180910390f35b6001819080600181540180825580915050600190039060005260206000200160009091909190915090805190602001906101e992919061069f565b5050565b60006002826040516101ff9190610a71565b9081526020016040518091039020549050919050565b6002818051602081018201805184825260208301602085012081835280955050505050506000915090505481565b6000803373ffffffffffffffffffffffffffffffffffffffff1673ffffffffffffffffffffffffffffffffffffffff16815260200190815260200160002060000160009054906101000a900460ff166102d1576040517f08c379a00000000000000000000000000000000000000000000000000000000081526004016102c890610b35565b60405180910390fd5b6000803373ffffffffffffffffffffffffffffffffffffffff1673ffffffffffffffffffffffffffffffffffffffff16815260200190815260200160002060000160019054906101000a900460ff1615610360576040517f08c379a000000000000000000000000000000000000000000000000000000000815260040161035790610b15565b60405180910390fd5b6002816040516103709190610a71565b9081526020016040518091039020600081548092919061038f90610cfe565b919050555060016000803373ffffffffffffffffffffffffffffffffffffffff1673ffffffffffffffffffffffffffffffffffffffff16815260200190815260200160002060000160016101000a81548160ff02191690831515021790555050565b60006020528060005260406000206000915090508060000160009054906101000a900460ff16908060000160019054906101000a900460ff16905082565b6001818154811061043f57600080fd5b90600052602060002001600091509050805461045a90610ccc565b80601f016020809104026020016040519081016040528092919081815260200182805461048690610ccc565b80156104d35780601f106104a8576101008083540402835291602001916104d3565b820191906000526020600020905b8154815290600101906020018083116104b657829003601f168201915b505050505081565b6000803373ffffffffffffffffffffffffffffffffffffffff1673ffffffffffffffffffffffffffffffffffffffff16815260200190815260200160002060000160009054906101000a900460ff161561056a576040517f08c379a000000000000000000000000000000000000000000000000000000000815260040161056190610af5565b60405180910390fd5b60016000803373ffffffffffffffffffffffffffffffffffffffff1673ffffffffffffffffffffffffffffffffffffffff16815260200190815260200160002060000160006101000a81548160ff021916908315150217905550565b60606001805480602002602001604051908101604052809291908181526020016000905b8282101561069657838290600052602060002001805461060990610ccc565b80601f016020809104026020016040519081016040528092919081815260200182805461063590610ccc565b80156106825780601f1061065757610100808354040283529160200191610682565b820191906000526020600020905b81548152906001019060200180831161066557829003601f168201915b5050505050815260200190600101906105ea565b50505050905090565b8280546106ab90610ccc565b90600052602060002090601f0160209004810192826106cd5760008555610714565b82601f106106e657805160ff1916838001178555610714565b82800160010185558215610714579182015b828111156107135782518255916020019190600101906106f8565b5b5090506107219190610725565b5090565b5b8082111561073e576000816000905550600101610726565b5090565b600061075561075084610ba1565b610b70565b90508281526020810184848401111561076d57600080fd5b610778848285610c8a565b509392505050565b60008135905061078f81610de5565b92915050565b600082601f8301126107a657600080fd5b81356107b6848260208601610742565b91505092915050565b6000813590506107ce81610dfc565b92915050565b6000602082840312156107e657600080fd5b60006107f484828501610780565b91505092915050565b60006020828403121561080f57600080fd5b600082013567ffffffffffffffff81111561082957600080fd5b61083584828501610795565b91505092915050565b60006020828403121561085057600080fd5b600061085e848285016107bf565b91505092915050565b600061087383836108ff565b905092915050565b600061088682610be1565b6108908185610c04565b9350836020820285016108a285610bd1565b8060005b858110156108de57848403895281516108bf8582610867565b94506108ca83610bf7565b925060208a019950506001810190506108a6565b50829750879550505050505092915050565b6108f981610c54565b82525050565b600061090a82610bec565b6109148185610c15565b9350610924818560208601610c99565b61092d81610dd4565b840191505092915050565b600061094382610bec565b61094d8185610c26565b935061095d818560208601610c99565b61096681610dd4565b840191505092915050565b600061097c82610bec565b6109868185610c37565b9350610996818560208601610c99565b80840191505092915050565b60006109af601b83610c26565b91507f566f74657220697320616c7265616479207265676973746572656400000000006000830152602082019050919050565b60006109ef601783610c26565b91507f566f7465722068617320616c726561647920766f7465640000000000000000006000830152602082019050919050565b6000610a2f601783610c26565b91507f566f746572206973206e6f7420726567697374657265640000000000000000006000830152602082019050919050565b610a6b81610c80565b82525050565b6000610a7d8284610971565b915081905092915050565b60006020820190508181036000830152610aa2818461087b565b905092915050565b6000604082019050610abf60008301856108f0565b610acc60208301846108f0565b9392505050565b60006020820190508181036000830152610aed8184610938565b905092915050565b60006020820190508181036000830152610b0e816109a2565b9050919050565b60006020820190508181036000830152610b2e816109e2565b9050919050565b60006020820190508181036000830152610b4e81610a22565b9050919050565b6000602082019050610b6a6000830184610a62565b92915050565b6000604051905081810181811067ffffffffffffffff82111715610b9757610b96610da5565b5b8060405250919050565b600067ffffffffffffffff821115610bbc57610bbb610da5565b5b601f19601f8301169050602081019050919050565b6000819050602082019050919050565b600081519050919050565b600081519050919050565b6000602082019050919050565b600082825260208201905092915050565b600082825260208201905092915050565b600082825260208201905092915050565b600081905092915050565b6000610c4d82610c60565b9050919050565b60008115159050919050565b600073ffffffffffffffffffffffffffffffffffffffff82169050919050565b6000819050919050565b82818337600083830152505050565b60005b83811015610cb7578082015181840152602081019050610c9c565b83811115610cc6576000848401525b50505050565b60006002820490506001821680610ce457607f821691505b60208210811415610cf857610cf7610d76565b5b50919050565b6000610d0982610c80565b91507fffffffffffffffffffffffffffffffffffffffffffffffffffffffffffffffff821415610d3c57610d3b610d47565b5b600182019050919050565b7f4e487b7100000000000000000000000000000000000000000000000000000000600052601160045260246000fd5b7f4e487b7100000000000000000000000000000000000000000000000000000000600052602260045260246000fd5b7f4e487b7100000000000000000000000000000000000000000000000000000000600052604160045260246000fd5b6000601f19601f8301169050919050565b610dee81610c42565b8114610df957600080fd5b50565b610e0581610c80565b8114610e1057600080fd5b5056fea264697066735822122067e91d817459963240aa62a7877b78927d54816853c0252d2cd3e309378fe34b64736f6c63430008000033",
  "immutableReferences": {},
  "source": "// SPDX-License-Identifier: MIT\r\npragma solidity ^0.8.0;\r\n\r\ncontract Voting {\r\n    // Struct to represent a voter\r\n    struct Voter {\r\n        bool isRegistered;  // Flag indicating whether the voter is registered\r\n        bool hasVoted;      // Flag indicating whether the voter has already cast a vote\r\n    }\r\n\r\n    // Mapping to store voters' details\r\n    mapping(address => Voter) public voters;\r\n\r\n    // Array to store candidate names\r\n    string[] public candidateList;\r\n\r\n    // Mapping to store votes for each candidate\r\n    mapping(string => uint256) public votesReceived;\r\n\r\n    // Function to register a voter\r\n    function registerVoter() public {\r\n        require(!voters[msg.sender].isRegistered, \"Voter is already registered\");\r\n\r\n        voters[msg.sender].isRegistered = true;\r\n    }\r\n\r\n    // Function to cast a vote\r\n    function castVote(string memory candidateName) public {\r\n        require(voters[msg.sender].isRegistered, \"Voter is not registered\");\r\n        require(!voters[msg.sender].hasVoted, \"Voter has already voted\");\r\n\r\n        // Increment vote count for the candidate\r\n        votesReceived[candidateName]++;\r\n\r\n        // Mark the voter as having voted\r\n        voters[msg.sender].hasVoted = true;\r\n    }\r\n\r\n    // Function to add a candidate to the list\r\n    function addCandidate(string memory candidateName) public {\r\n        // You can add additional logic here, such as checking if the candidate already exists\r\n        candidateList.push(candidateName);\r\n    }\r\n\r\n    // Function to retrieve the total votes for a candidate\r\n    function getVotesForCandidate(string memory candidateName) public view returns (uint256) {\r\n        return votesReceived[candidateName];\r\n    }\r\n\r\n    // Function to retrieve the list of candidates\r\n    function getCandidateList() public view returns (string[] memory) {\r\n        return candidateList;\r\n    }\r\n}\r\n",
  "sourcePath": "C:\\Users\\CANARA BANK\\Desktop\\college\\BLockchain\\finalBlockChainProject\\contracts\\voting.sol",
  "compiler": {
    "name": "solc",
    "version": "0.8.0+commit.c7dfd78e.Emscripten.clang"
  },
  "schemaVersion": "3.4.16",
  "updatedAt": "2025-04-08T18:57:52.351Z",
  "networkType": "ethereum",
  "devdoc": {
    "kind": "dev",
    "methods": {},
    "version": 1
  },
  "userdoc": {
    "kind": "user",
    "methods": {},
    "version": 1
  }
}